{
  "contractName": "OpenComplainNetwork",
  "abi": [
    {
      "inputs": [],
      "payable": false,
      "stateMutability": "nonpayable",
      "type": "constructor"
    },
    {
      "constant": false,
      "inputs": [
        {
          "name": "data",
          "type": "string"
        },
        {
          "name": "long",
          "type": "uint256"
        },
        {
          "name": "lat",
          "type": "uint256"
        },
        {
          "name": "cat",
          "type": "uint256"
        }
      ],
      "name": "registerComplain",
      "outputs": [
        {
          "name": "",
          "type": "uint256"
        }
      ],
      "payable": true,
      "stateMutability": "payable",
      "type": "function"
    },
    {
      "constant": false,
      "inputs": [
        {
          "name": "cid",
          "type": "uint256"
        }
      ],
      "name": "viewComplain",
      "outputs": [
        {
          "name": "",
          "type": "uint256"
        },
        {
          "name": "",
          "type": "uint256"
        },
        {
          "name": "",
          "type": "uint256"
        },
        {
          "name": "",
          "type": "uint256"
        },
        {
          "name": "",
          "type": "uint256"
        },
        {
          "name": "",
          "type": "string"
        },
        {
          "name": "",
          "type": "uint8"
        }
      ],
      "payable": false,
      "stateMutability": "nonpayable",
      "type": "function"
    },
    {
      "constant": false,
      "inputs": [
        {
          "name": "cid",
          "type": "uint256"
        },
        {
          "name": "sta",
          "type": "uint8"
        }
      ],
      "name": "changeStatus",
      "outputs": [],
      "payable": false,
      "stateMutability": "nonpayable",
      "type": "function"
    },
    {
      "constant": false,
      "inputs": [
        {
          "name": "cid",
          "type": "uint256"
        }
      ],
      "name": "resolve",
      "outputs": [],
      "payable": false,
      "stateMutability": "nonpayable",
      "type": "function"
    },
    {
      "constant": false,
      "inputs": [
        {
          "name": "cid",
          "type": "uint256"
        }
      ],
      "name": "declineProposal",
      "outputs": [],
      "payable": false,
      "stateMutability": "nonpayable",
      "type": "function"
    },
    {
      "constant": false,
      "inputs": [
        {
          "name": "accounts",
          "type": "address[]"
        }
      ],
      "name": "modifyPoliceAccounts",
      "outputs": [],
      "payable": false,
      "stateMutability": "nonpayable",
      "type": "function"
    },
    {
      "constant": false,
      "inputs": [
        {
          "name": "cid",
          "type": "uint256"
        }
      ],
      "name": "fundComplain",
      "outputs": [],
      "payable": true,
      "stateMutability": "payable",
      "type": "function"
    },
    {
      "constant": false,
      "inputs": [
        {
          "name": "cid",
          "type": "uint256"
        }
      ],
      "name": "claimSolution",
      "outputs": [],
      "payable": false,
      "stateMutability": "nonpayable",
      "type": "function"
    },
    {
      "constant": false,
      "inputs": [],
      "name": "checkFund",
      "outputs": [
        {
          "name": "",
          "type": "uint256"
        }
      ],
      "payable": false,
      "stateMutability": "nonpayable",
      "type": "function"
    },
    {
      "constant": false,
      "inputs": [
        {
          "name": "pid",
          "type": "address"
        }
      ],
      "name": "checkIfPoliceAccount",
      "outputs": [
        {
          "name": "",
          "type": "bool"
        }
      ],
      "payable": false,
      "stateMutability": "nonpayable",
      "type": "function"
    }
  ],
  "bytecode": "0x608060405234801561001057600080fd5b5033600360006101000a81548173ffffffffffffffffffffffffffffffffffffffff021916908373ffffffffffffffffffffffffffffffffffffffff160217905550600080819055506112f0806100686000396000f3fe6080604052600436106100a4576000357c0100000000000000000000000000000000000000000000000000000000900463ffffffff168063069b6df2146100a957806325a6c754146100d457806337465820146101025780633c98539d146101ee5780634f896d4f146102b35780637a492ebb146102ee5780639d3d24bc14610357578063b62d263314610392578063c5a8a2ab1461047f578063cc48bf16146104c7575b600080fd5b3480156100b557600080fd5b506100be610502565b6040518082815260200191505060405180910390f35b610100600480360360208110156100ea57600080fd5b8101908080359060200190929190505050610521565b005b34801561010e57600080fd5b5061013b6004803603602081101561012557600080fd5b810190808035906020019092919050505061068d565b604051808881526020018781526020018681526020018581526020018481526020018060200183600381111561016d57fe5b60ff168152602001828103825284818151815260200191508051906020019080838360005b838110156101ad578082015181840152602081019050610192565b50505050905090810190601f1680156101da5780820380516001836020036101000a031916815260200191505b509850505050505050505060405180910390f35b3480156101fa57600080fd5b506102b16004803603602081101561021157600080fd5b810190808035906020019064010000000081111561022e57600080fd5b82018360208201111561024057600080fd5b8035906020019184602083028401116401000000008311171561026257600080fd5b919080806020026020016040519081016040528093929190818152602001838360200280828437600081840152601f19601f8201169050808301925050505050505091929192905050506107e5565b005b3480156102bf57600080fd5b506102ec600480360360208110156102d657600080fd5b81019080803590602001909291905050506108d0565b005b3480156102fa57600080fd5b5061033d6004803603602081101561031157600080fd5b81019080803573ffffffffffffffffffffffffffffffffffffffff169060200190929190505050610986565b604051808215151515815260200191505060405180910390f35b34801561036357600080fd5b506103906004803603602081101561037a57600080fd5b81019080803590602001909291905050506109dc565b005b610469600480360360808110156103a857600080fd5b81019080803590602001906401000000008111156103c557600080fd5b8201836020820111156103d757600080fd5b803590602001918460018302840111640100000000831117156103f957600080fd5b91908080601f016020809104026020016040519081016040528093929190818152602001838380828437600081840152601f19601f820116905080830192505050505050509192919290803590602001909291908035906020019092919080359060200190929190505050610af5565b6040518082815260200191505060405180910390f35b34801561048b57600080fd5b506104c5600480360360408110156104a257600080fd5b8101908080359060200190929190803560ff169060200190929190505050610d09565b005b3480156104d357600080fd5b50610500600480360360208110156104ea57600080fd5b8101908080359060200190929190505050610e5d565b005b60003073ffffffffffffffffffffffffffffffffffffffff1631905090565b6001600381111561052e57fe5b6001600083815260200190815260200160002060040160149054906101000a900460ff16600381111561055d57fe5b14806105a1575060038081111561057057fe5b6001600083815260200190815260200160002060040160149054906101000a900460ff16600381111561059f57fe5b145b15156105ac57600080fd5b346001600083815260200190815260200160002060050160008282540192505081905550600160008281526020019081526020016000206007013390806001815401808255809150509060018203906000526020600020016000909192909190916101000a81548173ffffffffffffffffffffffffffffffffffffffff021916908373ffffffffffffffffffffffffffffffffffffffff160217905550506001600082815260200190815260200160002060080134908060018154018082558091505090600182039060005260206000200160009091929091909150555050565b60008060008060006060600087600160008a815260200190815260200160002060050154600160008b815260200190815260200160002060010154600160008c815260200190815260200160002060000154600160008d815260200190815260200160002060020154600160008e8152602001908152602001600020600301600160008f815260200190815260200160002060040160149054906101000a900460ff16818054600181600116156101000203166002900480601f0160208091040260200160405190810160405280929190818152602001828054600181600116156101000203166002900480156107c55780601f1061079a576101008083540402835291602001916107c5565b820191906000526020600020905b8154815290600101906020018083116107a857829003601f168201915b505050505091509650965096509650965096509650919395979092949650565b600360009054906101000a900473ffffffffffffffffffffffffffffffffffffffff1673ffffffffffffffffffffffffffffffffffffffff163373ffffffffffffffffffffffffffffffffffffffff1614151561084157600080fd5b60008090505b81518110156108cc57600160026000848481518110151561086457fe5b9060200190602002015173ffffffffffffffffffffffffffffffffffffffff1673ffffffffffffffffffffffffffffffffffffffff16815260200190815260200160002060006101000a81548160ff0219169083151502179055508080600101915050610847565b5050565b806001600082815260200190815260200160002060040160009054906101000a900473ffffffffffffffffffffffffffffffffffffffff1673ffffffffffffffffffffffffffffffffffffffff163373ffffffffffffffffffffffffffffffffffffffff1614151561094157600080fd5b60026001600084815260200190815260200160002060040160146101000a81548160ff0219169083600381111561097457fe5b021790555061098282610fa3565b5050565b6000600260008373ffffffffffffffffffffffffffffffffffffffff1673ffffffffffffffffffffffffffffffffffffffff16815260200190815260200160002060009054906101000a900460ff169050919050565b600160038111156109e957fe5b6001600083815260200190815260200160002060040160149054906101000a900460ff166003811115610a1857fe5b1480610a5d575060006003811115610a2c57fe5b6001600083815260200190815260200160002060040160149054906101000a900460ff166003811115610a5b57fe5b145b1515610a6857600080fd5b60036001600083815260200190815260200160002060040160146101000a81548160ff02191690836003811115610a9b57fe5b0217905550336004600083815260200190815260200160002060006101000a81548173ffffffffffffffffffffffffffffffffffffffff021916908373ffffffffffffffffffffffffffffffffffffffff16021790555050565b60008360016000805481526020019081526020016000206001018190555082600160008054815260200190815260200160002060000181905550816001600080548152602001908152602001600020600201819055508460016000805481526020019081526020016000206003019080519060200190610b7692919061121f565b5033600160008054815260200190815260200160002060040160006101000a81548173ffffffffffffffffffffffffffffffffffffffff021916908373ffffffffffffffffffffffffffffffffffffffff1602179055506000600160008054815260200190815260200160002060040160146101000a81548160ff02191690836003811115610c0157fe5b0217905550346001600080548152602001908152602001600020600501819055506000341115610ce85760016000805481526020019081526020016000206007013390806001815401808255809150509060018203906000526020600020016000909192909190916101000a81548173ffffffffffffffffffffffffffffffffffffffff021916908373ffffffffffffffffffffffffffffffffffffffff1602179055505060016000805481526020019081526020016000206008013490806001815401808255809150509060018203906000526020600020016000909192909190915055505b60008081548092919060010191905055506001600054039050949350505050565b60011515600260003373ffffffffffffffffffffffffffffffffffffffff1673ffffffffffffffffffffffffffffffffffffffff16815260200190815260200160002060009054906101000a900460ff161515141515610d6857600080fd5b60026003811115610d7557fe5b816003811115610d8157fe5b111580610da5575060006003811115610d9657fe5b816003811115610da257fe5b10155b1515610db057600080fd5b806001600084815260200190815260200160002060040160146101000a81548160ff02191690836003811115610de257fe5b021790555060026003811115610df457fe5b816003811115610e0057fe5b1415610e5957336004600084815260200190815260200160002060006101000a81548173ffffffffffffffffffffffffffffffffffffffff021916908373ffffffffffffffffffffffffffffffffffffffff1602179055505b5050565b806001600082815260200190815260200160002060040160009054906101000a900473ffffffffffffffffffffffffffffffffffffffff1673ffffffffffffffffffffffffffffffffffffffff163373ffffffffffffffffffffffffffffffffffffffff16141515610ece57600080fd5b600380811115610eda57fe5b6001600084815260200190815260200160002060040160149054906101000a900460ff166003811115610f0957fe5b141515610f1557600080fd5b600180600084815260200190815260200160002060040160146101000a81548160ff02191690836003811115610f4757fe5b021790555060006004600084815260200190815260200160002060006101000a81548173ffffffffffffffffffffffffffffffffffffffff021916908373ffffffffffffffffffffffffffffffffffffffff1602179055505050565b6000806001600084815260200190815260200160002060050154111561121b5760011515600260006004600086815260200190815260200160002060009054906101000a900473ffffffffffffffffffffffffffffffffffffffff1673ffffffffffffffffffffffffffffffffffffffff1673ffffffffffffffffffffffffffffffffffffffff16815260200190815260200160002060009054906101000a900460ff161515141515611104576004600083815260200190815260200160002060009054906101000a900473ffffffffffffffffffffffffffffffffffffffff1690508073ffffffffffffffffffffffffffffffffffffffff166108fc60016000858152602001908152602001600020600501549081150290604051600060405180830381858888f193505050501580156110e2573d6000803e3d6000fd5b506000600160008481526020019081526020016000206005018190555061121a565b60008090505b60016000848152602001908152602001600020600701805490508110156111fc57600160008481526020019081526020016000206007018181548110151561114e57fe5b9060005260206000200160009054906101000a900473ffffffffffffffffffffffffffffffffffffffff1691508173ffffffffffffffffffffffffffffffffffffffff166108fc60016000868152602001908152602001600020600801838154811015156111b857fe5b90600052602060002001549081150290604051600060405180830381858888f193505050501580156111ee573d6000803e3d6000fd5b50808060010191505061110a565b50600060016000848152602001908152602001600020600501819055505b5b5050565b828054600181600116156101000203166002900490600052602060002090601f016020900481019282601f1061126057805160ff191683800117855561128e565b8280016001018555821561128e579182015b8281111561128d578251825591602001919060010190611272565b5b50905061129b919061129f565b5090565b6112c191905b808211156112bd5760008160009055506001016112a5565b5090565b9056fea165627a7a72305820c818ccf570f229987c59411bc4994012bfd44aa5ed8a67e41e53528646b22e090029",
  "source": "pragma solidity >=0.4.21 <0.6.0;\r\n\r\ncontract OpenComplainNetwork {\r\n    enum Status { Pending, Accepted, Resolved, Proposed }\r\n    \r\n    struct Complain {\r\n        /*bytes[50] _name;\r\n        bytes[50] _address;\r\n        bytes[50] _desc;\r\n        bytes[50] _location;\r\n        bytes[50] _category;*/\r\n        uint _lat;\r\n        uint _long;\r\n        uint _category;\r\n        string _data;\r\n        address _personID;\r\n        Status _status;\r\n        uint _reward;\r\n        address _policeAssigned;\r\n        address[] _contributors;\r\n        uint[] _contAmount;\r\n    }\r\n    \r\n    uint private complainCounter;\r\n    mapping(uint => Complain) private complainMap;\r\n    mapping(address => bool) private policeAccounts;\r\n    address private superuser;\r\n    mapping(uint => address) private complainSolver;\r\n    \r\n    constructor() OpenComplainNetwork() public {\r\n        superuser = msg.sender;\r\n        complainCounter = 0;\r\n    }\r\n    \r\n    modifier superuserAccess() {\r\n        require(msg.sender == superuser);\r\n        _;\r\n    }\r\n    \r\n    modifier policeAccess {\r\n        require(policeAccounts[msg.sender] == true);\r\n        _;\r\n    }\r\n    \r\n    modifier complainOwnerAccess(uint cid) {\r\n        require(msg.sender == complainMap[cid]._personID);\r\n        _;\r\n    }\r\n    \r\n    modifier complainOwnOrPoliceAccess(uint cid) {\r\n        require(policeAccounts[msg.sender] == true || msg.sender == complainMap[cid]._personID);\r\n        _;\r\n    }\r\n    \r\n    function registerComplain(string memory data, uint long, uint lat, uint cat) public payable returns(uint) {\r\n        complainMap[complainCounter]._long = long;\r\n        complainMap[complainCounter]._lat = lat;\r\n        complainMap[complainCounter]._category = cat;\r\n        complainMap[complainCounter]._data = data;\r\n        complainMap[complainCounter]._personID = msg.sender;\r\n        complainMap[complainCounter]._status = Status.Pending;\r\n        complainMap[complainCounter]._reward = msg.value;\r\n\r\n        if(msg.value > 0) {\r\n            complainMap[complainCounter]._contributors.push(msg.sender);\r\n            complainMap[complainCounter]._contAmount.push(msg.value);\r\n        }\r\n        /*for(uint i=0; i<data.length; i++) {\r\n            complainMap[complainCounter]._data[i] = data[i];\r\n        }*/\r\n        complainCounter++;\r\n        \r\n        return complainCounter-1;\r\n    }\r\n\r\n    function viewComplain(uint cid) public  returns (uint, uint, uint, uint, uint, string memory, Status) {\r\n        return (cid, complainMap[cid]._reward, complainMap[cid]._long, complainMap[cid]._lat, complainMap[cid]._category, complainMap[cid]._data, complainMap[cid]._status);\r\n    }\r\n    \r\n    function changeStatus(uint cid, Status sta) public policeAccess {\r\n        require((sta <= Status.Resolved) || (sta >= Status.Pending));\r\n        complainMap[cid]._status = sta;\r\n        \r\n        // What if a person solves the problem and then the police \r\n        // updates the status to resolved. complainSolver[cid] = 'Police'\r\n        // no funds to the Original Solver. \r\n        if(sta == Status.Resolved) {\r\n            complainSolver[cid] = msg.sender;\r\n        }\r\n    }\r\n    \r\n    // Even though Police can resolve and close the complain.\r\n    // Complainee would be responsible for transfering the funds, if any.\r\n    function resolve(uint cid) public complainOwnerAccess(cid) {\r\n        complainMap[cid]._status = Status.Resolved;\r\n        \r\n        transferFundOnResolve(cid);\r\n    }\r\n    \r\n    function declineProposal(uint cid) public  complainOwnerAccess(cid) {\r\n        require( complainMap[cid]._status == Status.Proposed );\r\n        complainMap[cid]._status = Status.Accepted;\r\n        \r\n        complainSolver[cid] = address(0);\r\n    }\r\n    \r\n    // If someone other than police solved the complain transfer funds to solver.\r\n    // Otherwise send them back to the contributors.\r\n    function transferFundOnResolve(uint cid) private {\r\n        // Could also be used: complainMap[cid]._status == Status.Resolved && \r\n        address payable complain_payable  ;\r\n        if(complainMap[cid]._reward > 0) {\r\n            if(policeAccounts[complainSolver[cid]] != true) {\r\n                complain_payable=address(uint160(complainSolver[cid]));\r\n                complain_payable.transfer( complainMap[cid]._reward );\r\n                complainMap[cid]._reward = 0;\r\n            }\r\n            else {\r\n                for(uint i=0; i<complainMap[cid]._contributors.length; i++) {\r\n                    complain_payable=address(uint160(complainMap[cid]._contributors[i]));\r\n                    complain_payable.transfer( complainMap[cid]._contAmount[i] );\r\n                }\r\n                complainMap[cid]._reward = 0;\r\n                \r\n            }\r\n        }\r\n    }\r\n    \r\n    function modifyPoliceAccounts(address[] memory accounts) public superuserAccess {\r\n        for(uint i=0; i<accounts.length; i++) {\r\n            policeAccounts[accounts[i]] = true;\r\n        }\r\n    }\r\n    \r\n    function fundComplain(uint cid) public payable {\r\n        require((complainMap[cid]._status == Status.Accepted) || (complainMap[cid]._status == Status.Proposed));\r\n        complainMap[cid]._reward += msg.value;\r\n        complainMap[cid]._contributors.push(msg.sender);\r\n        complainMap[cid]._contAmount.push(msg.value);\r\n    }\r\n    \r\n    function claimSolution(uint cid) public {\r\n        // Police should accept the complain first.\r\n        require(complainMap[cid]._status == Status.Accepted || complainMap[cid]._status == Status.Pending);\r\n        complainMap[cid]._status = Status.Proposed;\r\n        complainSolver[cid] = msg.sender;\r\n    }\r\n    \r\n    function checkFund() public  returns(uint) {\r\n        return address(this).balance;\r\n    }\r\n    \r\n    function checkIfPoliceAccount(address pid) public  returns(bool) {\r\n        return policeAccounts[pid];\r\n    }\r\n    \r\n    \r\n\r\n}",
  "sourcePath": "D:/BlockAway/src/truffle-contract/contracts/OpenComplainNetwork.sol",
  "compiler": {
    "name": "solc",
    "version": "0.5.0+commit.1d4f565a.Emscripten.clang"
  },
  "schemaVersion": "3.0.9",
  "updatedAt": "2019-06-18T07:09:08.406Z",
  "devdoc": {
    "methods": {}
  },
  "userdoc": {
    "methods": {}
  }
}